:020000040800F2
:1000000000500020710A0008C10A0008C10A000857
:10001000C10A0008C10A0008C10A00080000000067
:10002000000000000000000000000000C10A0008FD
:10003000C10A000800000000C10A0008C10A000847
:10004000C10A0008C10A0008C10A0008C10A000864
:10005000C10A0008C10A0008C10A0008C10A000854
:10006000C10A0008C10A0008C10A0008C10A000844
:10007000C10A0008C10A0008C10A0008C10A000834
:10008000C10A0008C10A0008C10A0008C10A000824
:10009000C10A0008C10A0008C10A0008C10A000814
:1000A000C10A0008C10A0008C10A0008C10A000804
:1000B000C10A0008C10A0008C10A0008C10A0008F4
:1000C000C10A0008C10A0008C10A0008C10A0008E4
:1000D000C10A0008C10A0008C10A0008C10A0008D4
:1000E000C10A0008C10A000800000000C10A000897
:1000F000C10A0008C10A0008C10A0008C10A0008B4
:10010000C10A0008C10A0008C10A0008C10A0008A3
:10011000C10A0008C10A0008C10A0008C10A000893
:10012000C10A0008C10A0008C10A0008C10A000883
:1001300010B5054C237833B9044B13B10448AFF321
:1001400000800123237010BD00000020000000008B
:100150000C0B000808B5034B1BB103490348AFF370
:10016000008008BD00000000040000200C0B000807
:1001700080B483B000AF0346FB710B46BB711346DE
:100180007B71FB79022B00F2B680BB790F2B00F25A
:10019000B2807B790F2B00F2AE80BB79072B52D84F
:1001A000FB79022B37D0022B00F3A580002B02D065
:1001B000012B18D09FE0524B1B68BA7992000F2197
:1001C00001FA02F2D24311464D4A0B4013604C4BE8
:1001D0001B687979BA79920001FA02F21146484A0D
:1001E0000B43136087E0474B1B68BA7992000F21DD
:1001F00001FA02F2D2431146424A0B401360414BCE
:100200001B687979BA79920001FA02F211463D4AE7
:100210000B4313606FE03C4B1B68BA7992000F21CF
:1002200001FA02F2D2431146374A0B401360364BB3
:100230001B687979BA79920001FA02F21146324AC2
:100240000B43136057E0BB790F2B54D8BB79083BA5
:10025000BB71FB79022B36D0022B4CDC002B02D079
:10026000012B18D047E0294B1B68BA7992000F2167
:1002700001FA02F2D2431146244A0B401360234B89
:100280001B687979BA79920001FA02F211461F4A85
:100290000B4313602FE01E4B1B68BA7992000F21AD
:1002A00001FA02F2D2431146194A0B401360184B6F
:1002B0001B687979BA79920001FA02F21146144A60
:1002C0000B43136017E0134B1B68BA7992000F21A0
:1002D00001FA02F2D24311460E4A0B4013600D4B55
:1002E0001B687979BA79920001FA02F21146094A3B
:1002F0000B43136000BF00BF0C37BD4680BC704786
:1003000000080140000C01400010014004080140B9
:10031000040C01400410014080B483B000AF0346D8
:10032000FB710B46BB7113467B71FB79022B61D8C5
:10033000BB790F2B5ED87B79002B2DD1FB79022B5B
:100340001ED0022B56DC002B02D0012B0CD051E02A
:100350002B4B1B68BA79012101FA02F2D2431146F4
:10036000274A0B40136045E0264B1B68BA790121F0
:1003700001FA02F2D2431146224A0B40136039E0DF
:10038000214B1B68BA79012101FA02F2D2431146CE
:100390001D4A0B4013602DE07B79012B2AD1FB799C
:1003A000022B1CD0022B25DC002B02D0012B0BD002
:1003B00020E0134B1B68BA79012101FA02F21146C1
:1003C0000F4A0B43136015E00E4B1B68BA790121ED
:1003D00001FA02F211460B4A0B4313600AE00A4B82
:1003E0001B68BA79012101FA02F21146064A0B4351
:1003F000136000BF00BF0C37BD4680BC704700BF14
:100400000C0801400C0C01400C10014080B483B07A
:1004100000AF03463A60FB710B46BB71FB79022BC0
:1004200030D8BB790F2B2DD8FB79022B1ED0022B95
:1004300028DC002B02D0012B0CD023E0144B1A68CF
:10044000BB7922FA03F3DBB203F00103DAB23B68B3
:100450001A7017E00F4B1A68BB7922FA03F3DBB26C
:1004600003F00103DAB23B681A700BE00A4B1A681A
:10047000BB7922FA03F3DBB203F00103DAB23B6883
:100480001A7000BF00BF0C37BD4680BC704700BF6C
:1004900008080140080C01400810014080B485B0F4
:1004A00000AF78600023FB6003E000BFFB6801330E
:1004B000FB607B684FF4FA7202FB03F3FA689A421E
:1004C000F3D300BF00BF1437BD4680BC704780B572
:1004D00082B000AF78607B6858787B689B78082290
:1004E0001946FFF745FE012200210020FFF714FF07
:1004F00000BF0837BD4680BD80B584B000AF7860CE
:1005000039607B68DB78002B2AD13B6801221A70A6
:100510007B6858787B689B7807F10F021946FFF7D4
:1005200075FF7B681A79FB7B9A4219D03220FFF75E
:10053000B5FF7B6858787B689B7807F10F021946F6
:10054000FFF764FFFB7B002B06D13B6800221A708B
:100550007B6800221A7103E07B6801221A7100BFD8
:100560001037BD4680BD000080B400AF0A4B1B6849
:10057000094A43F001031360084B1B68074A23F044
:1005800001031360054B1B68044A23F00203136048
:1005900000BFBD4680BC70470010024004100240FE
:1005A00080B483B000AF03460A46FB711346BB71AB
:1005B000BB791F2B2AD8FB79022B1CD0022B25DC00
:1005C000002B02D0012B0BD020E0134B1B68BA7913
:1005D000012101FA02F211460F4A0B43136015E0A4
:1005E0000E4B1B68BA79012101FA02F211460B4A3F
:1005F0000B4313600AE00A4B1B68BA79012101FA28
:1006000002F21146064A0B43136000BF00BF0C37CD
:10061000BD4680BC704700BF141002401C10024051
:100620001810024080B500AF012201210020FFF721
:100630009FFD012202210020FFF79AFD01220321E4
:100640000020FFF795FD012204210020FFF790FD17
:10065000012205210020FFF78BFD01220621002049
:10066000FFF786FD012207210020FFF781FD01220F
:1006700008210020FFF77CFD012209210020FFF75F
:1006800077FD01220A210020FFF772FD00220921D7
:100690000020FFF741FE00220A210020FFF73CFE68
:1006A00000BF80BD80B584B000AF0346FB7100235E
:1006B000FB720023BB720023FB60FB79632B00F20B
:1006C0009F81FA79D04BA3FB0213D9080B469B00FC
:1006D0000B445B00D31AFB72FB79CB4AA2FB0323CA
:1006E000DB08BB720023FB6086E1FB7A092B00F27A
:1006F0007F8101A252F823F0210700086907000852
:10070000B1070008F9070008410800088908000837
:10071000D10800081909000861090008A9090008A2
:10072000012201210020FFF7F7FD01220221002014
:10073000FFF7F2FD012203210020FFF7EDFD01226A
:1007400004210020FFF7E8FD012205210020FFF72A
:10075000E3FD012206210020FFF7DEFD0022072134
:100760000020FFF7D9FD44E1002201210020FFF71E
:10077000D3FD012202210020FFF7CEFD012203213B
:100780000020FFF7C9FD002204210020FFF7C4FD6F
:10079000002205210020FFF7BFFD002206210020D6
:1007A000FFF7BAFD002207210020FFF7B5FD20E189
:1007B000012201210020FFF7AFFD012202210020CC
:1007C000FFF7AAFD002203210020FFF7A5FD01226B
:1007D00004210020FFF7A0FD012205210020FFF7E2
:1007E0009BFD002206210020FFF796FD0122072134
:1007F0000020FFF791FDFCE0012201210020FFF71E
:100800008BFD012202210020FFF786FD012203213A
:100810000020FFF781FD012204210020FFF77CFD6D
:10082000002205210020FFF777FD0022062100208D
:10083000FFF772FD012207210020FFF76DFDD8E0D0
:10084000002201210020FFF767FD01220221002084
:10085000FFF762FD012203210020FFF75DFD00226A
:1008600004210020FFF758FD002205210020FFF79A
:1008700053FD012206210020FFF74EFD0122072132
:100880000020FFF749FDB4E0012201210020FFF71D
:1008900043FD002202210020FFF73EFD012203213B
:1008A0000020FFF739FD012204210020FFF734FD6D
:1008B000002205210020FFF72FFD01220621002044
:1008C000FFF72AFD012207210020FFF725FD90E018
:1008D000012201210020FFF71FFD0022022100203C
:1008E000FFF71AFD012203210020FFF715FD012269
:1008F00004210020FFF710FD012205210020FFF751
:100900000BFD012206210020FFF706FD0122072131
:100910000020FFF701FD6CE0012201210020FFF71C
:10092000FBFC012202210020FFF7F6FC012203213B
:100930000020FFF7F1FC002204210020FFF7ECFC6F
:10094000002205210020FFF7E7FC002206210020FD
:10095000FFF7E2FC002207210020FFF7DDFC48E062
:10096000012201210020FFF7D7FC012202210020F3
:10097000FFF7D2FC012203210020FFF7CDFC01226A
:1009800004210020FFF7C8FC012205210020FFF709
:10099000C3FC012206210020FFF7BEFC0122072133
:1009A0000020FFF7B9FC24E0012201210020FFF71D
:1009B000B3FC012202210020FFF7AEFC012203213B
:1009C0000020FFF7A9FC012204210020FFF7A4FC6E
:1009D000002205210020FFF79FFC012206210020B4
:1009E000FFF79AFC012207210020FFF795FC00E0A9
:1009F00000BFFB680133FB60FB68312B7FF675AEEF
:100A000000BF1037BD4680BDCDCCCCCC80B582B008
:100A100000AF0123BB710023FB71144A3B4692E8EF
:100A20000300186004331970FFF79EFD02210220B5
:100A3000FFF7B6FD3B461846FFF749FDFFF7F2FD0D
:100A4000BA1D3B4611461846FFF756FDBB79002BF1
:100A5000F6D1FB79082B06D8FB795A1CFA71184697
:100A6000FFF720FEECE70023FB71E9E7240B000809
:100A70000D488546AFF300800C480D490D4A002310
:100A800002E0D458C4500433C4188C42F9D30A4A43
:100A90000A4C002301E013600432A242FBD300F0B1
:100AA00011F8FFF7B3FFFEE7005000200000002020
:100AB00000000020340B0008000000201C00002073
:100AC000FEE7000070B500260C4D0D4C641BA41011
:100AD000A64209D100F01AF800260A4D0A4C641B00
:100AE000A410A64205D170BD55F8043B98470136C5
:100AF000EEE755F8043B98470136F2E72C0B000867
:100B00002C0B00082C0B0008300B0008F8B500BFB8
:100B1000F8BC08BC9E467047F8B500BFF8BC08BCDE
:040B20009E46704736
:080B24000100000001000000C7
:040B2C005501000867
:040B30003101000887
:0400000508000A7174
:00000001FF
