:020000040800F2
:1000000000500020C107000811080008110800086E
:10001000110800081108000811080008000000007D
:1000200000000000000000000000000011080008AF
:1000300011080008000000001108000895060008DB
:10004000110800081108000811080008110800082C
:10005000110800081108000811080008110800081C
:10006000110800081108000811080008110800080C
:1000700011080008110800081108000811080008FC
:1000800011080008110800081108000811080008EC
:1000900011080008110800081108000811080008DC
:1000A00011080008110800081108000811080008CC
:1000B00011080008110800081108000811080008BC
:1000C00011080008110800081108000811080008AC
:1000D000110800081108000811080008110800089C
:1000E00011080008110800080000000011080008AD
:1000F000110800081108000811080008110800087C
:10010000110800081108000811080008110800086B
:10011000110800081108000811080008110800085B
:10012000110800081108000811080008110800084B
:1001300010B5054C237833B9044B13B10448AFF321
:1001400000800123237010BD00000020000000008B
:100150005C08000808B5034B1BB103490348AFF323
:10016000008008BD00000000040000205C080008BA
:1001700080B483B000AF0346FB710B46BB711346DE
:100180007B71FB79022B00F2B680BB790F2B00F25A
:10019000B2807B790F2B00F2AE80BB79072B52D84F
:1001A000FB79022B37D0022B00F3A580002B02D065
:1001B000012B18D09FE0524B1B68BA7992000F2197
:1001C00001FA02F2D24311464D4A0B4013604C4BE8
:1001D0001B687979BA79920001FA02F21146484A0D
:1001E0000B43136087E0474B1B68BA7992000F21DD
:1001F00001FA02F2D2431146424A0B401360414BCE
:100200001B687979BA79920001FA02F211463D4AE7
:100210000B4313606FE03C4B1B68BA7992000F21CF
:1002200001FA02F2D2431146374A0B401360364BB3
:100230001B687979BA79920001FA02F21146324AC2
:100240000B43136057E0BB790F2B54D8BB79083BA5
:10025000BB71FB79022B36D0022B4CDC002B02D079
:10026000012B18D047E0294B1B68BA7992000F2167
:1002700001FA02F2D2431146244A0B401360234B89
:100280001B687979BA79920001FA02F211461F4A85
:100290000B4313602FE01E4B1B68BA7992000F21AD
:1002A00001FA02F2D2431146194A0B401360184B6F
:1002B0001B687979BA79920001FA02F21146144A60
:1002C0000B43136017E0134B1B68BA7992000F21A0
:1002D00001FA02F2D24311460E4A0B4013600D4B55
:1002E0001B687979BA79920001FA02F21146094A3B
:1002F0000B43136000BF00BF0C37BD4680BC704786
:1003000000080140000C01400010014004080140B9
:10031000040C01400410014080B483B000AF0346D8
:10032000FB710B46BB7113467B71FB79022B61D8C5
:10033000BB790F2B5ED87B79002B2DD1FB79022B5B
:100340001ED0022B56DC002B02D0012B0CD051E02A
:100350002B4B1B68BA79012101FA02F2D2431146F4
:10036000274A0B40136045E0264B1B68BA790121F0
:1003700001FA02F2D2431146224A0B40136039E0DF
:10038000214B1B68BA79012101FA02F2D2431146CE
:100390001D4A0B4013602DE07B79012B2AD1FB799C
:1003A000022B1CD0022B25DC002B02D0012B0BD002
:1003B00020E0134B1B68BA79012101FA02F21146C1
:1003C0000F4A0B43136015E00E4B1B68BA790121ED
:1003D00001FA02F211460B4A0B4313600AE00A4B82
:1003E0001B68BA79012101FA02F21146064A0B4351
:1003F000136000BF00BF0C37BD4680BC704700BF14
:100400000C0801400C0C01400C10014080B400AFFE
:100410000A4B1B68094A43F001031360084B1B6831
:10042000074A23F001031360054B1B68044A23F0BD
:100430000203136000BFBD4680BC7047001002403D
:100440000410024080B483B000AF03460A46FB713B
:100450001346BB71BB791F2B2AD8FB79022B1CD00A
:10046000022B25DC002B02D0012B0BD020E0134BFC
:100470001B68BA79012101FA02F211460F4A0B43B7
:10048000136015E00E4B1B68BA79012101FA02F2E4
:1004900011460B4A0B4313600AE00A4B1B68BA79FA
:1004A000012101FA02F21146064A0B43136000BF14
:1004B00000BF0C37BD4680BC704700BF141002401F
:1004C0001C1002401810024080B500AF00F0B0F8D8
:1004D00003494FF47A7000F0B7F800BF80BD00BF49
:1004E0006105000880B485B000AF7B600346FB73F4
:1004F0000B46BB8113467B81FB7B022B29D87B6893
:10050000002B26D0FA7B154913465B0013449B0051
:100510000B447A891A80FA7B104913465B00134416
:100520009B000B440233BA891A80FA7B0B491346AD
:100530005B0013449B000B4404337A681A60FA7B17
:10054000064913465B0013449B000B440833012209
:100550001A7000BF1437BD4680BC70471C000020D5
:1005600080B582B000AF0023FB7156E0FA792F49C5
:1005700013465B0013449B000B4404331B68002BA1
:1005800048D0FA79294913465B0013449B000B4479
:1005900002331B88002B29D1FA79244913465B00CA
:1005A00013449B000B4408331B78012B1ED1FA79AE
:1005B0001E4913465B0013449B000B4404331B6825
:1005C0009847FA79194913465B0013449B000B4482
:1005D0001B88FA79013B98B2144913465B00134417
:1005E0009B000B44023302461A8013E0FA790F494C
:1005F00013465B0013449B000B4402331B88013BF2
:1006000098B20A4913465B0013449B000B44023323
:1006100002461A80FB790133FB71FB79022BA5D9C5
:1006200000BF00BF0837BD4680BD00BF1C000020D2
:1006300080B400AF034B00221A6000BFBD4680BCEF
:10064000704700BF10E000E080B483B000AF786076
:1006500039600D4A7B6853600B4B1B680A4A43F0B4
:1006600001031360094A3B681360094B04221A70A6
:10067000054B1B68044A43F00203136000BF0C37AC
:10068000BD4680BC704700BF10E000E04000002085
:100690004400002080B582B000AF0023FB71124BF4
:1006A0001B78022B11D1114B1B68104A23F0020357
:1006B00013600E4B1B680D4A23F0010313600B4BB4
:1006C00000225A60094B00229A60094B1B68984728
:1006D000064B1B681B0CDBB203F00103FB7100BF70
:1006E0000837BD4680BD00BF4400002010E000E098
:1006F0004000002080B500AFFFF788FE02210220F5
:10070000FFF7A0FE022200210020FFF731FD0222A8
:1007100001210020FFF72CFD022202210020FFF71B
:1007200027FD094B4FF47A724FF47A710020FFF7DE
:10073000D9FE064B4FF4FA6200210120FFF7D2FEEA
:10074000FFF7C2FEFEE700BF510700088907000857
:1007500080B500AF0B4B1B78002B08D10122002184
:100760000020FFF7D9FD074B01221A7007E0002295
:1007700000210020FFF7D0FD024B00221A7000BFBD
:1007800080BD00BF4500002080B500AF0B4B1B783B
:10079000002B08D1012201210020FFF7BDFD074BEE
:1007A00001221A7007E0002201210020FFF7B4FDAA
:1007B000024B00221A7000BF80BD00BF460000201F
:1007C0000D488546AFF300800C480D490D4A0023C3
:1007D00002E0D458C4500433C4188C42F9D30A4AF6
:1007E0000A4C002301E013600432A242FBD300F064
:1007F00011F8FFF77FFFFEE7005000200000002007
:10080000000000207C0800080000002048000020B4
:10081000FEE7000070B500260C4D0D4C641BA410C3
:10082000A64209D100F01AF800260A4D0A4C641BB2
:10083000A410A64205D170BD55F8043B9847013677
:10084000EEE755F8043B98470136F2E774080008D4
:10085000740800087408000878080008F8B500BF9C
:10086000F8BC08BC9E467047F8B500BFF8BC08BC91
:040870009E467047E9
:040874005501000822
:040878003101000842
:04000005080007C127
:00000001FF
